{
  "contractName": "MyContract",
  "abi": [
    {
      "inputs": [],
      "payable": false,
      "stateMutability": "nonpayable",
      "type": "constructor"
    },
    {
      "constant": true,
      "inputs": [],
      "name": "age",
      "outputs": [
        {
          "internalType": "uint256",
          "name": "",
          "type": "uint256"
        }
      ],
      "payable": false,
      "stateMutability": "view",
      "type": "function"
    },
    {
      "constant": true,
      "inputs": [
        {
          "internalType": "uint256",
          "name": "",
          "type": "uint256"
        }
      ],
      "name": "hobbies",
      "outputs": [
        {
          "internalType": "uint256",
          "name": "id",
          "type": "uint256"
        },
        {
          "internalType": "string",
          "name": "title",
          "type": "string"
        },
        {
          "internalType": "bool",
          "name": "isBeingPracticed",
          "type": "bool"
        }
      ],
      "payable": false,
      "stateMutability": "view",
      "type": "function"
    },
    {
      "constant": true,
      "inputs": [],
      "name": "hobbiesCount",
      "outputs": [
        {
          "internalType": "uint256",
          "name": "",
          "type": "uint256"
        }
      ],
      "payable": false,
      "stateMutability": "view",
      "type": "function"
    },
    {
      "constant": true,
      "inputs": [],
      "name": "name",
      "outputs": [
        {
          "internalType": "string",
          "name": "",
          "type": "string"
        }
      ],
      "payable": false,
      "stateMutability": "view",
      "type": "function"
    },
    {
      "constant": false,
      "inputs": [
        {
          "internalType": "string",
          "name": "_title",
          "type": "string"
        },
        {
          "internalType": "bool",
          "name": "_isBeingPracticed",
          "type": "bool"
        }
      ],
      "name": "createHobby",
      "outputs": [],
      "payable": false,
      "stateMutability": "nonpayable",
      "type": "function"
    },
    {
      "constant": true,
      "inputs": [],
      "name": "getName",
      "outputs": [
        {
          "internalType": "string",
          "name": "",
          "type": "string"
        }
      ],
      "payable": false,
      "stateMutability": "view",
      "type": "function"
    },
    {
      "constant": true,
      "inputs": [],
      "name": "getAge",
      "outputs": [
        {
          "internalType": "uint256",
          "name": "",
          "type": "uint256"
        }
      ],
      "payable": false,
      "stateMutability": "view",
      "type": "function"
    },
    {
      "constant": false,
      "inputs": [
        {
          "internalType": "string",
          "name": "_name",
          "type": "string"
        }
      ],
      "name": "setName",
      "outputs": [],
      "payable": false,
      "stateMutability": "nonpayable",
      "type": "function"
    },
    {
      "constant": false,
      "inputs": [
        {
          "internalType": "uint256",
          "name": "_age",
          "type": "uint256"
        }
      ],
      "name": "setAge",
      "outputs": [],
      "payable": false,
      "stateMutability": "nonpayable",
      "type": "function"
    }
  ],
  "bytecode": "0x608060405234801561001057600080fd5b50604080518082019091526004808252634c69616d60e01b602090920191825261003c91600091610042565b506100dd565b828054600181600116156101000203166002900490600052602060002090601f016020900481019282601f1061008357805160ff19168380011785556100b0565b828001600101855582156100b0579182015b828111156100b0578251825591602001919060010190610095565b506100bc9291506100c0565b5090565b6100da91905b808211156100bc57600081556001016100c6565b90565b61069d806100ec6000396000f3fe608060405234801561001057600080fd5b50600436106100935760003560e01c8063967e6e6511610066578063967e6e651461013f578063969b6ab314610147578063c47f0027146101ee578063d5dcf12714610296578063ee75493f146102b357610093565b806306fdde03146100985780630b8a2c871461011557806317d7de7c1461012f578063262a9dff14610137575b600080fd5b6100a061035b565b6040805160208082528351818301528351919283929083019185019080838360005b838110156100da5781810151838201526020016100c2565b50505050905090810190601f1680156101075780820380516001836020036101000a031916815260200191505b509250505060405180910390f35b61011d6103e9565b60408051918252519081900360200190f35b6100a06103ef565b61011d610486565b61011d61048c565b6101646004803603602081101561015d57600080fd5b5035610492565b604051808481526020018060200183151515158152602001828103825284818151815260200191508051906020019080838360005b838110156101b1578181015183820152602001610199565b50505050905090810190601f1680156101de5780820380516001836020036101000a031916815260200191505b5094505050505060405180910390f35b6102946004803603602081101561020457600080fd5b81019060208101813564010000000081111561021f57600080fd5b82018360208201111561023157600080fd5b8035906020019184600183028401116401000000008311171561025357600080fd5b91908080601f016020809104026020016040519081016040528093929190818152602001838380828437600092019190915250929550610542945050505050565b005b610294600480360360208110156102ac57600080fd5b5035610559565b610294600480360360408110156102c957600080fd5b8101906020810181356401000000008111156102e457600080fd5b8201836020820111156102f657600080fd5b8035906020019184600183028401116401000000008311171561031857600080fd5b91908080601f016020809104026020016040519081016040528093929190818152602001838380828437600092019190915250929550505050351515905061055e565b6000805460408051602060026001851615610100026000190190941693909304601f810184900484028201840190925281815292918301828280156103e15780601f106103b6576101008083540402835291602001916103e1565b820191906000526020600020905b8154815290600101906020018083116103c457829003601f168201915b505050505081565b60025481565b60008054604080516020601f600260001961010060018816150201909516949094049384018190048102820181019092528281526060939092909183018282801561047b5780601f106104505761010080835404028352916020019161047b565b820191906000526020600020905b81548152906001019060200180831161045e57829003601f168201915b505050505090505b90565b60015481565b60015490565b6003602090815260009182526040918290208054600180830180548651600293821615610100026000190190911692909204601f81018690048602830186019096528582529194929390929083018282801561052f5780601f106105045761010080835404028352916020019161052f565b820191906000526020600020905b81548152906001019060200180831161051257829003601f168201915b5050506002909301549192505060ff1683565b80516105559060009060208401906105d0565b5050565b600155565b6002805460019081019182905560408051606081018252838152602080820187815286151583850152600095865260038252929094208151815591518051919492936105b093908501929101906105d0565b50604091909101516002909101805460ff19169115159190911790555050565b828054600181600116156101000203166002900490600052602060002090601f016020900481019282601f1061061157805160ff191683800117855561063e565b8280016001018555821561063e579182015b8281111561063e578251825591602001919060010190610623565b5061064a92915061064e565b5090565b61048391905b8082111561064a576000815560010161065456fea265627a7a72315820ba9d9077a491eb3e3e2a997b2e2549dd1eb91a05bf2d71e98f95f639f590037964736f6c63430005100032",
  "source": "// SPDX-License-Identifier: MIT\r\npragma solidity ^0.5.16;\r\n\r\ncontract MyContract {\r\n    string public name;\r\n    uint256 public age;\r\n    uint256 public hobbiesCount;\r\n\r\n    // initiator - default values upon deployment\r\n    constructor() public {\r\n        name = \"Liam\";\r\n    }\r\n\r\n    struct Hobby {\r\n        uint id;\r\n        string title;\r\n        bool isBeingPracticed;\r\n    }\r\n\r\n    mapping(uint => Hobby) public hobbies;\r\n\r\n    function createHobby(string memory _title, bool _isBeingPracticed) public {\r\n\t  hobbiesCount++;\r\n      hobbies[hobbiesCount] = Hobby(hobbiesCount, _title, _isBeingPracticed);\r\n    }\r\n\r\n    /* \r\n        1. public - visibility\r\n        2. view - if we dont modify we just view it(getter)\r\n        3. returns()\r\n    */\r\n\r\n    // Getters\r\n    function getName() public view returns (string memory) {\r\n        return name;\r\n    }\r\n\r\n    function getAge() public view returns (uint256) {\r\n        return age;\r\n    }\r\n\r\n    // Setters\r\n    function setName(string memory _name) public {\r\n        name = _name;\r\n    }\r\n\r\n    function setAge(uint256 _age) public {\r\n        age = _age;\r\n    }\r\n}\r\n",
  "sourcePath": "D:\\Program Files (x86)\\dev\\solidity\\contracts\\MyContract.sol",
  "compiler": {
    "name": "solc",
    "version": "0.5.16+commit.9c3226ce.Emscripten.clang"
  },
  "schemaVersion": "3.4.3",
  "updatedAt": "2021-11-06T15:09:34.591Z",
  "devdoc": {
    "methods": {}
  },
  "userdoc": {
    "methods": {}
  }
}