{
  "contractName": "MyContract",
  "abi": [
    {
      "inputs": [],
      "payable": false,
      "stateMutability": "nonpayable",
      "type": "constructor"
    },
    {
      "constant": true,
      "inputs": [],
      "name": "age",
      "outputs": [
        {
          "internalType": "uint256",
          "name": "",
          "type": "uint256"
        }
      ],
      "payable": false,
      "stateMutability": "view",
      "type": "function"
    },
    {
      "constant": true,
      "inputs": [],
      "name": "name",
      "outputs": [
        {
          "internalType": "string",
          "name": "",
          "type": "string"
        }
      ],
      "payable": false,
      "stateMutability": "view",
      "type": "function"
    },
    {
      "constant": true,
      "inputs": [],
      "name": "getName",
      "outputs": [
        {
          "internalType": "string",
          "name": "",
          "type": "string"
        }
      ],
      "payable": false,
      "stateMutability": "view",
      "type": "function"
    },
    {
      "constant": true,
      "inputs": [],
      "name": "getAge",
      "outputs": [
        {
          "internalType": "uint256",
          "name": "",
          "type": "uint256"
        }
      ],
      "payable": false,
      "stateMutability": "view",
      "type": "function"
    },
    {
      "constant": false,
      "inputs": [
        {
          "internalType": "string",
          "name": "_name",
          "type": "string"
        }
      ],
      "name": "setName",
      "outputs": [],
      "payable": false,
      "stateMutability": "nonpayable",
      "type": "function"
    },
    {
      "constant": false,
      "inputs": [
        {
          "internalType": "uint256",
          "name": "_age",
          "type": "uint256"
        }
      ],
      "name": "setAge",
      "outputs": [],
      "payable": false,
      "stateMutability": "nonpayable",
      "type": "function"
    }
  ],
  "bytecode": "0x608060405234801561001057600080fd5b50604080518082019091526004808252634c69616d60e01b602090920191825261003c91600091610042565b506100dd565b828054600181600116156101000203166002900490600052602060002090601f016020900481019282601f1061008357805160ff19168380011785556100b0565b828001600101855582156100b0579182015b828111156100b0578251825591602001919060010190610095565b506100bc9291506100c0565b5090565b6100da91905b808211156100bc57600081556001016100c6565b90565b6103ed806100ec6000396000f3fe608060405234801561001057600080fd5b50600436106100625760003560e01c806306fdde031461006757806317d7de7c146100e4578063262a9dff146100ec578063967e6e6514610106578063c47f00271461010e578063d5dcf127146101b6575b600080fd5b61006f6101d3565b6040805160208082528351818301528351919283929083019185019080838360005b838110156100a9578181015183820152602001610091565b50505050905090810190601f1680156100d65780820380516001836020036101000a031916815260200191505b509250505060405180910390f35b61006f610261565b6100f46102f8565b60408051918252519081900360200190f35b6100f46102fe565b6101b46004803603602081101561012457600080fd5b81019060208101813564010000000081111561013f57600080fd5b82018360208201111561015157600080fd5b8035906020019184600183028401116401000000008311171561017357600080fd5b91908080601f016020809104026020016040519081016040528093929190818152602001838380828437600092019190915250929550610304945050505050565b005b6101b4600480360360208110156101cc57600080fd5b503561031b565b6000805460408051602060026001851615610100026000190190941693909304601f810184900484028201840190925281815292918301828280156102595780601f1061022e57610100808354040283529160200191610259565b820191906000526020600020905b81548152906001019060200180831161023c57829003601f168201915b505050505081565b60008054604080516020601f60026000196101006001881615020190951694909404938401819004810282018101909252828152606093909290918301828280156102ed5780601f106102c2576101008083540402835291602001916102ed565b820191906000526020600020905b8154815290600101906020018083116102d057829003601f168201915b505050505090505b90565b60015481565b60015490565b8051610317906000906020840190610320565b5050565b600155565b828054600181600116156101000203166002900490600052602060002090601f016020900481019282601f1061036157805160ff191683800117855561038e565b8280016001018555821561038e579182015b8281111561038e578251825591602001919060010190610373565b5061039a92915061039e565b5090565b6102f591905b8082111561039a57600081556001016103a456fea265627a7a723158206373ff0511a6a09c675c076d69df8db25327fd15b238c00355307cd269f6d96d64736f6c63430005100032",
  "source": "// SPDX-License-Identifier: MIT\r\npragma solidity ^0.5.16;\r\n\r\ncontract MyContract {\r\n    string public name;\r\n    uint256 public age;\r\n\r\n    constructor() public {\r\n        name = \"Liam\";\r\n    }\r\n\r\n    /* \r\n        1. public - visibility\r\n        2. view - if we dont modify we just view it(getter)\r\n        3. returns()\r\n    */\r\n\r\n    // Getters\r\n    function getName() public view returns (string memory) {\r\n        return name;\r\n    }\r\n\r\n    function getAge() public view returns (uint256) {\r\n        return age;\r\n    }\r\n\r\n    // Setters\r\n    function setName(string memory _name) public {\r\n        name = _name;\r\n    }\r\n\r\n    function setAge(uint256 _age) public {\r\n        age = _age;\r\n    }\r\n}\r\n",
  "sourcePath": "D:\\Program Files (x86)\\dev\\solidity\\contracts\\MyContract.sol",
  "compiler": {
    "name": "solc",
    "version": "0.5.16+commit.9c3226ce.Emscripten.clang"
  },
  "schemaVersion": "3.4.3",
  "updatedAt": "2021-11-06T14:27:55.837Z",
  "networkType": "ethereum",
  "devdoc": {
    "methods": {}
  },
  "userdoc": {
    "methods": {}
  }
}